:020000040800F2
:1000000028050020A1010008831F0008D11B00085B
:10001000811F00087D080008E1250008000000009D
:100020000000000000000000000000003121000876
:100030007F08000800000000851F00085521000807
:10004000BB010008BB010008BB010008BB010008A0
:10005000BB010008BB010008BB010008BB01000890
:10006000BB010008BB010008BB010008BB01000880
:10007000BB010008BB010008BB010008BB01000870
:10008000BB010008BB010008BB010008BB01000860
:10009000BB010008BB010008BB010008BB01000850
:1000A000BB010008BB010008BB010008BB01000840
:1000B000BB0100080000000000000000BB010008B8
:1000C000BB0100080000000000000000BB010008A8
:1000D00000000000BB010008BB0100080000000098
:1000E000BB010008BB010008000000000000000088
:1000F0000000000000000000000000000000000000
:10010000000000000000000000000000BB0100082B
:100110000000000000000000BB010008BB01000857
:10012000BB010008BB010008BB010008BB010008BF
:10013000BB010008000000000000000000000000FB
:10014000BB010008BB010008BB010008BB0100089F
:10015000BB010008BB010008BB010008BB0100088F
:10016000BB010008BB010008BB0100080000000043
:10017000BB010008BB0100080000000000000000F7
:10018000BB010008BB010008BB010008DFF80CD070
:1001900000F050FB00480047192F000828050020F8
:1001A0000648804706480047FEE7FEE7FEE7FEE711
:1001B000FEE7FEE7FEE7FEE7FEE7FEE7E9210008CF
:1001C0008D0100082DE9F05F0546002092469B4610
:1001D00088460646814640241BE02846414647465D
:1001E000224600F0A4F953465A46C01A914110D352
:1001F00011461846224600F08BF92D1A67EB0108CC
:100200004F4622460120002100F082F917EB000939
:100210004E41201EA4F10104DFDC484631462A4647
:10022000434600F000B830BCBDE8C09F40EA01037F
:100230009B0703D009E008C9121F08C0042AFAD29C
:1002400003E011F8013B00F8013B521EF9D2704760
:10025000D2B201E000F8012B491EFBD27047002208
:10026000F6E710B513460A4604461946FFF7F0FFB5
:10027000204610BD421C10F8011B0029FBD1801A3A
:1002800070472DE9FE4F81EA030404F0004421F099
:10029000004100944FF0000B23F0004350EA0104AA
:1002A0005ED052EA03045BD0C3F30A54C1F30A558B
:1002B0002C44A4F2F3340194A0FB0254C1F31301C3
:1002C00041F48011C3F3130343F4801301FB024490
:1002D00000FB034E840A970A44EA815447EA835795
:1002E000A4FB076802958D0A05FB07854FEA932C4E
:1002F00004FB0C542705029D4FEA065847EA1637BF
:10030000B5EB08056EEB070C870E920E47EA8117D6
:1003100042EA8312A7FB0201B6EB0B0164EB000477
:100320002B0D43EA0C335E1844EB1C50DA46514661
:10033000E7FB0201C5F313044FEA0B3343EA1453FE
:100340004FEA0432019C43EA0603A4F10C04029430
:10035000009CCDE900B400F040F903B000F003B810
:1003600000200146F9E730BCBDE8C08F2DE9F04D13
:1003700081EA030404F0004B21F0004514464FF0DD
:10038000000A23F0004150EA050220D054EA01029D
:100390001DD0C5F30A570246C5F31303C1F313007A
:1003A000C1F30A5640F4801543F48013A7EB060806
:1003B000101BD64608F2FD3873EB050002D308F196
:1003C000010801E092185B41B8F1000F03DA002048
:1003D0000146BDE8F08D00204FF4801106468446AA
:1003E0000EE0171B73EB050705D3121B63EB050328
:1003F00006434CEA010C49084FEA300092185B4171
:1004000050EA0107EDD152EA030012D082EA04005B
:1004100083EA0501084305D0101BAB4106D2012237
:10042000002306E000224FF0004302E06FF00102DB
:1004300053101AEB06004CEB085110EB0A0041EB8D
:100440000B01BDE8F04D00F0B9B80EB5C10F80EA60
:10045000E0700844CA07002140F233438DE80E00E3
:100460000A460B4600F0B9F803B000BD0EB540F2E5
:10047000334102910021CDE900110A460B4600F0FC
:10048000ACF803B000BD00F0004230F000400AD0EC
:10049000C10D01F56071C0F3160042EA0151C208B6
:1004A00040071143704700200146704701F00043A8
:1004B00030B421F0004150EA010206D00A0DA2F545
:1004C0006072C1F31301002A02DC30BC00207047C7
:1004D000440F44EAC104C100E01830BC00EBC25034
:1004E00000F035B830B50B4601460020202201242B
:1004F00009E021FA02F59D4205D303FA02F5491BF2
:1005000004FA02F52844151EA2F10102F1DC30BD07
:10051000202A04DB203A00FA02F1002070479140C3
:10052000C2F1200320FA03F3194390407047202AB8
:1005300004DB203A21FA02F00021704721FA02F38D
:10054000D040C2F12002914008431946704700296B
:10055000A8BF7047401C490008BF20F00100704749
:1005600010B4B0FA80FC00FA0CF050EA010404BFA9
:1005700010BC704749B1CCF1200421FA04F411FAFF
:100580000CF118BF012121430843A3EB0C01CB1D43
:100590004FEA00614FEA102042BF002010BC7047B4
:1005A00000EBC35010440029A4BF10BC7047401C8E
:1005B000490008BF20F0010010BC704710B5141EA0
:1005C00073F1000408DA401C41F1000192185B410C
:1005D0001A4301D120F0010010BD2DE9F04D9246E3
:1005E0009B4611B1B1FA81F202E0B0FA80F22032FA
:1005F0009046FFF78DFF04460F4640EA0A0041EAA5
:100600000B0153465A46084313D0114653EA0100E2
:1006100019D0C8F140025046FFF789FF05460E4643
:10062000504659464246FFF773FF084305D0012064
:1006300004E020463946BDE8F08D0020054346EA37
:10064000E0762C4337430A986305E40AA0EB0800E0
:100650000022FD0A44EA47540A3002D50020014630
:10066000E9E7010510196941DDE90845001969410B
:10067000BDE8F04DA2E72DE9FE4F804681EA030078
:10068000C00F0C46009021F0004123F00045B8EB6C
:100690000200A94105D24046214690461C460B4621
:1006A000024623F00040104347D0270DC7F30A004D
:1006B000C3F30A510290401A019040286BDAC3F349
:1006C000130040F4801B0098924620B10023D2EB27
:1006D000030A63EB0B0B01985946C0F140025046E8
:1006E000FFF716FF06460D4650465946019A00F0A0
:1006F000B3F810EB08006141002487EA115284EA44
:10070000E7731A4340D0009A62B3019A012A4FEA74
:10071000075215DC001B61EB02014FF0004202EAB8
:100720000752CDE90042001C41F5801132462B46AC
:10073000FFF753FF03B000F045B840462146F9E704
:10074000001B61EB0201001C41F5801300185B41A6
:100750002018A2F5001747EB030140EAD570B6193F
:100760006D4111E06D084FEA360645EAC0754FEA63
:100770000752001B61EB0201001C41F58011490882
:100780004FEA30000019514132462B4603B000F0C9
:100790001CB8FFF713BF0098012240000023D0EBE4
:1007A000020263EBE073009821464FEAE074B8EB75
:1007B000000061EB0401E9E783F000435BE781F0AF
:1007C000004158E730BCBDE8C08F30BCBDE8C04F29
:1007D000FFF7DFBFC1F30A52C1F3130140F2FF3349
:1007E00041F480119A4202DA00200146704740F23B
:1007F00033439A42A2F2334202DC5242FFF797BEE1
:10080000FFF786BE30B5041E71F1000404DB4FF023
:100810000044404264EB0101141E73F1000405DB47
:100820001C464FF00043524263EB0403994208BF59
:10083000904230BD064C074D06E0E06840F00103F1
:1008400094E8070098471034AC42F6D3FFF7A2FCB7
:1008500084310008A4310008202A06DBCB17203A97
:1008600041FA02F043EAE07306E041FA02F3D040B5
:10087000C2F120029140084319467047FEE77047D5
:10088000FEB514460D46064601223A200DF101013F
:1008900001F0F2F99DF80100002819D0062201A903
:1008A0003B2001F0E9F99DF805009DF8041000EBEC
:1008B000012030809DF807009DF8061000EB012014
:1008C00028809DF809009DF8081000EB0120208089
:1008D000FEBD000070B5044600F0DCF80546601C63
:1008E00002D004484068044400F0D4F8401BA04201
:1008F000FAD370BD000000202DE9F84FDFF870B189
:10090000002301274FF0030A4FF00F090BF1040EEB
:10091000A7E000BF07FA03F6324070D04C68022C03
:1009200001D0122C10D1DC0800EB8408D8F820404C
:100930005D074FEAD56C09FA0CF5AC430D6905FA71
:100940000CF52543C8F82050D0F800805D0091F8E0
:1009500004C00AFA05F40CF0030C28EA04080CFAA7
:1009600005FC4CEA080CC0F800C0D1F804C0BCF18A
:10097000010F08D0BCF1020F05D0BCF1110F02D05D
:10098000BCF1120F16D1D0F808C0D1F80C802CEAB7
:10099000040C08FA05F848EA0C08C0F80880D0F8FA
:1009A00004C02CEA060C0E79C6F300169E4046EAF7
:1009B0000C064660C668A6438C68AC403443C460ED
:1009C0004C68E4004CD52B4C256E45F0010525669E
:1009D000246E23F0030504F001040094264C2E1924
:1009E000B4689D074FEA157C09FA0CF5AC43B0F1E9
:1009F000904F05D0214DA84204D1012508E02FE0F9
:100A0000002505E01E4DA84201D1022500E0072582
:100A100005FA0CF52543B560DBF800405D464E68ED
:100A20009443F60300D514432C60DEF8004075466D
:100A30004E689443B60300D514432C600C4D083522
:100A40002C684E689443F60200D514432C60084D80
:100A50000C352C684E689443B60200D514432C60C4
:100A60005B1C0A6832FA03F47FF454AF00F00AB852
:100A70000004014000100240000001400004004852
:100A80000008004818BCBDE8E08F0AB181617047DA
:100A900081627047014880687047000000000020B4
:100AA00090F84120202A24D190F84020012A20D01B
:100AB000012280F84020242280F841200268136837
:100AC00023F0010313600268136823F4805313605A
:100AD000026813680B43136001680A6842F0010260
:100AE0000A60202180F84110002180F8401008465B
:100AF00070470220704790F84120202A22D190F8B8
:100B00004020012A1ED0012280F84020242280F8B3
:100B100041200268136823F0010313600268136820
:100B200023F4706343EA0121116001680A6842F00E
:100B300001020A60202180F84110002180F8401055
:100B4000084670470220704770B5040004D094F83E
:100B50004100002510B106E0012070BD84F840502E
:100B6000204600F079F9242084F8410020680168CB
:100B700021F0010101606068216820F07060086167
:100B80002068816821F400418160E0680128A06844
:100B900007D040F4044021688860E068022803D050
:100BA00006E040F40040F6E721684FF4006048603A
:100BB00020684168114A114341602068C16821F4EE
:100BC0000041C160D4E904010843A16940EA012061
:100BD0002168C860D4E907010843216808602068DB
:100BE000016841F0010101606564202084F8410042
:100BF000256384F84250002070BD00000080000290
:100C00002DE9F84F044690F84100DDF828A01F4672
:100C100090468B4620287ED194F8400001287AD057
:100C2000012084F84000FFF735FF064601220090BE
:100C30001923D103204601F04FF8E0BB222084F8AD
:100C40004100102084F8420000256564C4F8248027
:100C500067856563618D3148FF274FF080784FF0DD
:100C60000079FF2903D927853A46009039E0618D44
:100C7000218500903AE05946204601F017F813E02C
:100C800001F056F8B8B92068406A616A0870606A75
:100C9000401C6062208D401E80B22085618D491EFF
:100CA0006185618D01B168B1608D32460028514681
:100CB0002046E5D100E002E001F07CF8D0B101204F
:100CC00000F030B85346002280212046009601F003
:100CD00003F80028F3D1608DFF2804D927853A4610
:100CE00000954346C7E7608D2085009594F828203D
:100CF0004B46C0E721682020C86121684A68084B3C
:100D00001A404A6084F8410084F8425084F8405008
:100D10000020D5E7FFE70220D2E700000024008092
:100D200000E800FE18BCBDE8E08F00002DE9F84F98
:100D3000044690F84100DDF828A01F4690468B46F7
:100D400020287ED194F8400001287AD0012084F830
:100D50004000FFF79FFE0646012200901923D103B1
:100D6000204600F0B9FFE0BB212084F841001020AC
:100D700084F8420000256564C4F8248067856563B3
:100D8000618D3148FF274FF080784FF00079FF29BF
:100D900003D927853A46009039E0618D218500907E
:100DA0003AE05946204600F081FF13E001F028F8B0
:100DB000B8B9606A216800788862606A401C606225
:100DC000608D401E6085208D401E80B22085618D23
:100DD00001B168B1608D3246002851462046E5D108
:100DE00000E002E000F0E6FFD0B1012000F030B8F2
:100DF0005346002280212046009600F06DFF002817
:100E0000F3D1608DFF2804D927853A4600954346E3
:100E1000C7E7608D2085009594F828204B46C0E7F1
:100E200021682020C86121684A68084B1A404A603E
:100E300084F8410084F8425084F840500020D5E7FF
:100E4000FFE70220D2E700000020008000E800FE5B
:100E500018BCBDE8E08F000010B586B00446142130
:100E60006846FFF7FCF913492068884220D1124CEC
:100E7000E06C40F00100E064E06C694600F00100C5
:100E800005904FF4C0600090122001900120029064
:100E900003200390042004904FF09040FFF72CFDB6
:100EA000A06D40F40010A065A06D00F40010059046
:100EB00006B010BD00540040001002400248816896
:100EC00042681144816070470000002010B5002482
:100ED000032000F063F8002000F008F808B10124B6
:100EE00001E000F025F8204610BD000070B50E4E60
:100EF00005460024706898B14FF47A71B1FBF0F0A8
:100F00000A490968B1FBF0F000F084FD40B9102DEA
:100F100006D200222946501E00F020F8356000E07D
:100F20000124204670BD0000000000200C000020BD
:100F3000094808B5016E41F001010166016E01F03A
:100F400001010091816D41F080518165806D00F05B
:100F50008050009008BD000000100240F0B40E4B1D
:100F60001B680C46C3F30223C3F10705042D00D907
:100F70000425191D072901D2002300E0DB1E0126EC
:100F800006FA05F1491E214099409E40761E164002
:100F90003143F0BC01F03ABB0CED00E0064900F033
:100FA000070208684FF6FF03184040EA0220034A90
:100FB00010430860704700000CED00E00000FA05E7
:100FC0001649B0F5007F0868C0F3412009D0022817
:100FD00005D0086820F4C06040F4806008600020FC
:100FE00070470128FBD0086820F4C06040F400700E
:100FF00008600B483222006850430A4AB0FBF2F006
:10100000401C00E0401E4A69520501D50028F9D174
:1010100048694005E3D50320704700000070004098
:101020000C00002040420F000248006800F4C0603D
:1010300070470000007000400248016841F4807170
:1010400001607047007000400248016841F00401EF
:1010500001607047001002402DE9F84F0446002758
:1010600000889C4D3E46000515D5E06B60B1B0F59B
:10107000000F04D0B0F5400F2BD001270AE0E8683C
:1010800040F48030E86024E00021201D00F07CFF67
:1010900007001ED03E462068800338D5A86D4FF06B
:1010A0000008C00009D4A86D40F08050A865A86D64
:1010B0004FF0010800F080500090DFF81CA2DAF831
:1010C000001041F48071CAF80010FFF7E3FC81467C
:1010D00010E0D5F88800E16B20F440000843C5F823
:1010E0008800D8E7FFF7D6FCA0EB0900022801D959
:1010F000032704E0DAF80000C005F3D5EFB33E465D
:10110000B8F1000F03D0A86D20F08050A8652078BA
:10111000C00707D0D5F88800216A20F003000843F3
:10112000C5F888002078800707D5D5F88800616A5F
:1011300020F00C000843C5F888002078800607D509
:10114000D5F88800A16A20F440600843C5F88800FB
:101150002088800507D5D5F88800616B20F44020F1
:101160000843C5F888002088400509D5D5F88800CF
:10117000A16B20F44010084300E02EE0C5F8880081
:101180002078400607D5D5F88800E16A20F4405061
:101190000843C5F888002088C00507D5D5F8880021
:1011A000216B20F440300843C5F8880020884FF0B8
:1011B000006780044FF080684ED5D5F88800216C18
:1011C00020F040600843C5F88800206CB8423BD14D
:1011D000E86840F48010E8603EE0D5F8900010F434
:1011E000407014D0216D814211D0D5F89000D5F80F
:1011F000901020F4407041F48031C5F89010D5F87B
:10120000901021F48031C5F89010C5F89000C00707
:1012100011D0FFF73FFC074641F2883907E000BFD5
:10122000FFF738FCC11B494501D9032668E7D5F80B
:1012300090008007F4D5D5F89000216D20F440701F
:101240000843C5F890005BE7404505D10121201D0A
:1012500000F09AFE00B106462068400317D5D5F885
:101260008800616C20F040600843C5F88800606C1D
:10127000B84204D1E86840F48010E86007E04045D7
:1012800005D10121201D00F07FFE00B10646208817
:10129000400411D5D5F88800A16C20F040500843D7
:1012A000C5F88800A06CB0F1805F05D10221201D37
:1012B00000F06AFE00B106462088000406D555F805
:1012C000880FE16C20F0804008432860304600F031
:1012D00005B80000001002400070004018BCBDE8D6
:1012E000E08F00002DE9F0470F46050058D0404E32
:1012F000306800F00700B84209D2306820F00700DB
:1013000038433060306800F00700B84248D1287890
:10131000384CC0072CD06868032811D0022812D09E
:10132000216898B1490500293ADAA16821F0030142
:101330000143A160FFF7AEFB804641F2883910E01F
:1013400021688901EFE721688903ECE78907EAE76B
:10135000FFF7A0FBA0EB0801494502D90320BDE837
:10136000F087A068696800F00C00B0EB810FEFD146
:101370002878800705D5A068A96820F0F000084308
:10138000A060306800F00700B8420BD9306820F048
:10139000070038433060306800F00700B84201D0E1
:1013A0000120DCE72878400705D5A068E96820F42B
:1013B000E0600843A0602878000706D5A068296986
:1013C00020F4605040EAC100A06000F03FF8A1683E
:1013D000094AC1F30311515C01F01F01C8400749DC
:1013E000086007480068BDE8F047FFF77FBD0000D0
:1013F00000200240001002403C3100080C00002098
:10140000000000200548064900688968054AC1F3C4
:101410000221515C01F01F01C84070470C00002000
:10142000001002407C3100080548064900688968C0
:10143000054AC1F3C221515C01F01F01C840704749
:101440000C000020001002407C31000870B52549D6
:10145000002318468A68CC6812F00C0204F00306D8
:10146000214C4FEA640509D00C2A05D0042A32D059
:10147000082A00D1284670BD012E10D10B681B0729
:1014800004D4D1F89430C3F3032302E00B68C3F310
:101490000313164E56F82330DAB10C2AEBD1C86884
:1014A00000F00300022818D0032818D01846CA6894
:1014B000CB68C2F30212C3F306234343521CB3FBAF
:1014C000F2F2C868C0F34160401C4000B2FBF0F08B
:1014D00070BD184670BD204670BD2046E7E728461F
:1014E000E5E70000001002400024F4004C31000841
:1014F0002DE9F84304006ED0FD4DA86800F00C06FD
:10150000E86800F003072078C00663D576B10C2E9A
:1015100001D1012F0AD0A0690028286878D040F0B6
:1015200001002860FFF7B6FA80465BE02868800774
:1015300002D5A0690028DED0216A2868000703D5FB
:10154000286800F0F00004E0D5F89400F02202EAE8
:101550001010814216D9084600F0ACFD00283AD19F
:10156000286840F0080028602868216A20F0F00010
:10157000084328606868E16920F47F4040EA012060
:10158000686015E0286840F0080028602868216A33
:1015900020F0F000084328606868E16920F47F408B
:1015A00040EA01206860206A00F084FD0028D6D15E
:1015B000FFF74CFFA968CF4AC1F30311515C01F05A
:1015C0001F01C840CC490860CC480068FFF78EFC7A
:1015D00000287DD12DE0C9E0FFF75CFAA0EB080000
:1015E000022876D828688007F6D5286840F00800D9
:1015F00028602868216A20F0F000084328606868A5
:10160000E16920F47F4040EA0120686011E0FFE7D3
:1016100020F001002860FFF73DFA804606E000BF99
:10162000FFF738FAA0EB08000228DAD8286880070C
:10163000F6D42078C00740D0082E18D00C2E01D147
:10164000032F14D06068B0F5803F17D0B0F5A02FFD
:10165000286817D020F480302860286820F4802083
:1016600028606068E0B1FFF715FA804614E028684A
:10167000800322D56068002878D01EE0286840F4F6
:101680008030EDE740F480202860F7E7FFF702FAAA
:10169000A0EB08006428A4D828688003F6D50CE0E5
:1016A000FFF7F8F9804605E0FFF7F4F9A0EB080032
:1016B000642896D828688003F6D4207880073BD524
:1016C000042E11D00C2E01D1022F0DD0E06801E0C4
:1016D00064E1B8E0002828681ED040F480702860DB
:1016E000FFF7D8F907460CE0286840050CD5E068FC
:1016F0000028C1D008E000BFFFF7CCF9C01B0228CA
:1017000093D828684005F7D56868217C20F0F85008
:1017100040EA016068600FE020F480702860FFF705
:10172000B9F9074605E000BFFFF7B4F9C01B02286E
:10173000B1D828684005F7D42078000729D560691A
:101740000028D5F8940012D040F00100C5F89400AC
:10175000FFF7A0F9074604E0FFF79CF9C01B022839
:1017600071D8D5F894008007F6D512E04CE120F04E
:101770000100C5F89400FFF78DF9074605E000BFAA
:10178000FFF788F9C01B02285DD8D5F894008007C0
:10179000F6D42078400766D5A86D0027C00008D48D
:1017A000A86D40F08050A865A86D012700F080501A
:1017B000009053480168C90512D40168814641F47C
:1017C00080710160FFF766F9804605E0FFF762F976
:1017D000A0EB0800022836D8D9F80000C005F5D5DE
:1017E000A068012816D00528D5F8900017D020F061
:1017F0000100C5F89000D5F8900020F0040000BF6B
:10180000C5F89000A06841F28839C0B1FFF742F9ED
:1018100080460FE0D5F8900040F00100F0E740F07E
:101820000400C5F89000F5E7FFF734F9A0EB0801D4
:10183000494508D8D5F890008007F5D50EE0FFF7A8
:1018400029F9804606E07CE0FFF724F9A0EB0801C7
:10185000494576D8D5F890008007F5D41FB1A86D1A
:1018600020F08050A8652078800628D5606A00287E
:10187000D5F8980012D040F00100C5F89800FFF7A5
:1018800009F9074605E000BFFFF704F9C01B02286D
:1018900057D8D5F898008007F6D510E020F0010061
:1018A000C5F89800FFF7F6F8074604E0FFF7F2F8EE
:1018B000C01B022871D8D5F898008007F6D4A06A1A
:1018C000F0B30C2E71D00228286820F080702860B8
:1018D0001AD02868000103D4E86820F00300E8600B
:1018E000E86808490840E860FFF7D4F8044657E084
:1018F000001002403C3100080C00002000000020D5
:1019000000700040FFFFEEFEFFF7C4F8064604E05B
:10191000FFF7C0F8801B02283FD828688001F7D461
:10192000F4E90B016FF00F0202EB01110843218A69
:101930004908520402EB4151A26841EA022101E048
:1019400064E02AE00843217D4FF07E42490802EB23
:1019500041610843217B40EAC160E9682C4A11409B
:101960000843E860286840F080702860E86840F02C
:101970008070E860FFF78EF8044604E0FFF78AF80D
:10198000001B022809D828688001F7D53EE000BF77
:10199000FFF780F8001B022802D90320BDE8F88376
:1019A00028688001F4D431E0FFE70128F6D0E86828
:1019B000E26A00F00301914226D1216B00F070022F
:1019C0000901103991421FD1626B00F4FE41B1EB65
:1019D000022F19D194F8382000F07841B1EBC26F92
:1019E00012D1A18F00F4C00249084905A1F50011E8
:1019F000914209D194F8401000F0C06049084906AE
:101A0000A1F10071814201D00120C7E70020C5E7A4
:101A10008C809D0110B5401EB0F1807F01D3012064
:101A200010BD4FF0E02460610F21601700F0EEFD63
:101A30000020A06107202061002010BD10B5040027
:101A400002D0606F10B107E0012010BD002084F8C3
:101A50007000204600F026F82420606720680168A6
:101A600021F001010160204600F070FC0128ECD05B
:101A7000606A10B1204600F0D9FB2068416821F46B
:101A8000904141602068816821F02A0181602068CE
:101A9000016841F0010101602046BDE8104000F0FE
:101AA00029BC0000F0B587B0044614216846FEF753
:101AB000D6FB18492068884229D11748816D41F426
:101AC00000318165816D01F400310591C16C41F0F7
:101AD0000101C164C06C022500F0010005900420E2
:101AE00000268DE8610003240720CDE903404FF074
:101AF000904769463846FEF7FFFEA803CDE900058A
:101B0000CDE90264694604943846FEF7F5FE07B055
:101B1000F0BD000000440040001002402DE9F843F1
:101B20000446406F1F4616460D4620284ED1CDB1C3
:101B3000C6B194F87000012848D0012084F87000E4
:101B40004FF00008C4F87C8021206067FEF7A2FFF8
:101B5000A4F850608146A4F85260A068B0F5805F98
:101B600003D004E00120BDE8F883206910B12E46BF
:101B7000002510E000260EE08021204600F000FD48
:101B8000B8B9C6B116F8010B21680885B4F852003F
:101B9000401EA4F85200B4F852004B464FF0000229
:101BA00000970028E8D14FF04001204600F0E8FC03
:101BB00030B10320D7E735F8020BC0F30800E3E7A4
:101BC0002020606784F870800020CCE70220CAE7FC
:101BD000FEE701688A69D243920701D400228A6233
:101BE00000688169C943C90703D0816941F00101D7
:101BF000816170472DE9F0410446006890460E4629
:101C00008069C043C00633D400252027206880693E
:101C1000C043800615D5701CF8D0FEF73BFFA0EB43
:101C20000800B04201D8002EF0D154F8440F40F023
:101C3000200044F804096770A57025700120BDE8F4
:101C4000F08121681020C8612068C7612046FFF735
:101C5000C0FF54F8440B4168064A114041602068B7
:101C600040F0040044F820096777A5772577E5E779
:101C70000020E4E700E800FE2DE9FC4116460F468F
:101C8000D0248DF804000A25012301AA2146064824
:101C90000095FFF74BF833463A4621460248009537
:101CA000FEF7AEFFBDE8FC81DC000020F0B5056862
:101CB000059C68684FF48066064FC1F3090106EA87
:101CC000545641EA02413E431943B043214308437D
:101CD0006860F0BDFF63FF032DE9F0411D46174624
:101CE0000E460446DDF8188008E0681C06D0FEF7B2
:101CF000D1FEA0EB0800A8420BD855B1206880693E
:101D000036EA000012D00020B842EED00020BDE834
:101D1000F08154F8440F40F0200044F804092020DA
:101D200060700020A07020700120F0E70120EBE738
:101D30002DE9F041002690460F460446202525E077
:101D4000424639462046FFF755FF78BB2068806938
:101D5000C043800613D420688169C943490701D470
:101D6000218DC1B9C56154F8440B4168104A114036
:101D7000416044F820696577A677267716E0FEF77C
:101D800089FEA0EB0800B84208D83FB120688069FE
:101D9000C0434007D4D40020BDE8F08154F8440F7C
:101DA00040F0200044F80409657026700120F3E734
:101DB00000E800FE70B516460D4604460DE03246BA
:101DC00029462046FFF716FF08B1012070BDFEF737
:101DD00061FE801BA84207D835B120688069C043E6
:101DE0008006ECD4002070BD54F8440F40F0200071
:101DF00044F80409202060700020A0702070E4E7FF
:101E000070B516460D4604460FE032462946204678
:101E1000FFF7F0FE08B1012070BD681C05D0FEF789
:101E200039FE801BA84207D835B120688069C043BD
:101E30008007EAD4002070BD54F8440F40F0200021
:101E400044F80409202060700020A0702070E2E7B0
:101E50001CB502238DF8040064208DF80510009055
:101E6000D02101AA0148FEF761FF1CBDDC00002063
:101E700070B50E461C461546049901F03DF93046F2
:101E800001F054F9284601F04DF92046BDE87040B4
:101E900001F050B901464C220148FEF7C7B90000D5
:101EA000DC00002010B586B014216846FEF7D7F993
:101EB0001548C16C41F00401C164C16C01F004011A
:101EC0000591C16C41F00101C164C16C01F00101D7
:101ED0000591C16C41F00201C164C06C0B4C00F073
:101EE00002000590002208212046FEF7CEFD0820C2
:101EF000009001200021CDE90101039169462046AF
:101F0000FEF7FAFC06B010BD0010024000040048C5
:101F10000E4810B50C4901600D49416000210122B5
:101F2000C0E90212016141618161C1610162FEF794
:101F30000BFE00210548FEF7B3FDBDE8104000216F
:101F40000248FEF7D8BD00000054004010000020F9
:101F5000BB7C70000948084901604FF4E1314160E1
:101F6000002181600C22C160C0E904128161C1615D
:101F700001624162FFF762BD004400405C00002046
:101F8000FEE77047704700002DE9F041444C0546DC
:101F90008846E0680026810728680DD0E16801F0D6
:101FA0000301814216D1A8B1E0686968C0F302104C
:101FB000401C88420ED120E0012804D0022805D020
:101FC000032807D108E02168890701E02168490555
:101FD000002907DB01265FE02168890302D421681C
:101FE0004903F5E7E1686A686FF00F0321F07301B8
:101FF00003EB021211430143E160206820F080608E
:102000002060FEF747FD074605E000BFFEF742FDF2
:10201000C01B022837D820680001F7D4B8F1000FA0
:1020200018D0B8F1010F1DD0287D4FF07E41400837
:1020300001EB4060A96840EA01202169194A11407A
:1020400008432061206840F080602060FEF722FD98
:1020500007461AE0A868297B000240EAC1602169AE
:10206000114AECE7288A1149400801EB4050A96861
:1020700040EA012021690E4AE1E700BFFEF70AFDB0
:10208000C01B022801D9032606E020680001F5D50F
:102090002069A969084320613046BDE8F08100004D
:1020A00000100240FF80FFF9FF80FF070000E0FF03
:1020B000FF809FFFF8B51C4D06460024A86DC000A8
:1020C00002D5FEF7B1FF0DE0A86D40F08050A86585
:1020D000A86D00F080500090FEF7A6FFA96D21F0DA
:1020E0008051A965B0F5007F04D0802E07D94FF04C
:1020F00003040AE0802E08D9A02E01D804E001D103
:10210000022402E0702E00D101240848016821F069
:10211000070121430160006800F00700A04201D0E0
:102120000120F8BD0020F8BD001002400020024050
:102130007047000010B5044611B9FEF79BF8014640
:102140008AB22146BDE810400A230148FFF7E6BCE9
:102150005C000020FEF7B2BE10B5ACB0442168466A
:10216000FEF77DF8142126A8FEF779F8542111A86E
:10217000FEF775F8FEF760FF1A4850F8901F21F03F
:1021800018010160142000900120029000246021B9
:102190000690CDE907410221CDE90A100C901020EC
:1021A0000D900720CDE90E0168461091FFF7A0F9C8
:1021B0000F2026900320CDE927042994012126A889
:1021C0002A94FFF78FF8422011901A941C9411A8BA
:1021D000FEF742FF4FF40070FEF7F2FEFEF734FF09
:1021E0002CB010BD001002400D48016841F4700190
:1021F00001600C48016841F001010160002181602B
:102200000268094B1A4002608214C260026822F41C
:102210008022026081610249C003803908607047F2
:1022200088ED00E000100240FFFFF6EA90F824106D
:10223000C90706D001684A68836A22F400321A434B
:102240004A6090F82410890706D501684A68C36A75
:1022500022F480321A434A6090F82410490706D5C8
:1022600001684A68036B22F480221A434A6090F89E
:102270002410090706D501684A68436B22F400421E
:102280001A434A6090F82410C90606D501688A6886
:10229000836B22F480521A438A6090F824108906D6
:1022A00006D501688A68C36B22F400521A438A601B
:1022B00090F82410490611D501684A68036C22F48D
:1022C00080121A434A60016CB1F5801F06D1016883
:1022D0004A68436C22F4C0021A434A6090F8241002
:1022E000090606D501684A68806C22F40022024380
:1022F0004A607047F8B500260446C667FEF7CAFB79
:102300000546206800686FF07E47000708D52B4619
:1023100000224FF400112046009700F031F960B917
:102320002068006840070AD52B4600224FF4800140
:102330002046009700F024F908B10320F8BD2020C2
:102340006067A06784F870600020F8BD2DE9F04157
:102350000446026880682369E569184363690027B9
:102360002B4318437D4913687D4D2B400343136075
:1023700020684268E36822F440521A4342602268AF
:10238000A0698A4201D0236A1843936823F430631A
:1023900003439360734A2368734893420DD1D0F886
:1023A000880010F0030006D0012838D0022834D06D
:1023B000032821D135E001251FE06C4A93420BD15F
:1023C000D0F8880010F00C0025D0042827D0082869
:1023D00023D00C2810D124E08B420DD1D0F88800F6
:1023E00010F4406017D0B0F5806F18D0B0F5006FD2
:1023F00013D0B0F5406F14D010255D4A00264FF47D
:1024000000408B4245D175B1022D0FD0042D0FD065
:10241000082D18D10FE00025EFE70225EDE7042590
:10242000EBE70825E9E7FEF7EDFF03E0104602E0E1
:10243000FFF70CF8A8B3626802EB4201814202D8B0
:10244000B0EB023F01D9012775E0DFF828815DB1CB
:10245000022D0CD0042D13D0082DF4D150082905DD
:10246000401846F1000105E0FEF7CCFF0AE05008F5
:102470004149F5E70023FDF7A5FEA0F5407156E0C0
:10248000FEF7E4FF6268010E03025008181871415C
:10249000F0E7E1694FF6EF7881422FD1092DD2D2D2
:1024A00000E048E0DFE805F0060920052305050502
:1024B0002600C8E7FEF7A6FF01E0FEF7B5FF4100E2
:1024C000D4F8040001EB5001B1FBF0F080B2A0F1B0
:1024D00010014145B7D84FF6F0710140C0F34200FA
:1024E00001432068C16026E024496068EAE7FEF7FE
:1024F000ADFFE4E74FF480316068E3E7092DA2D235
:10250000DFE805F006091E052205050525009AE706
:10251000FEF778FF01E0FEF787FF0146606801EBF8
:10252000500100BFB1FBF0F080B2A0F110014145B5
:1025300089D82168C860266638466666BDE8F0819D
:10254000606802EB5001EDE7FEF780FFE5E76168A8
:1025500000EB5100B0FBF1F0E6E700000080004026
:10256000F369FFEF003801400010024000440040D2
:102570000024F400FFFC0F00000024F40048E801F0
:102580002DE9F041984617460E460446069D08E0A0
:10259000681C06D0FEF77EFAA0EB0800A8420BD814
:1025A00055B12068C06936EA000017D00020B84253
:1025B000EED00020BDE8F0812068016821F4D071E0
:1025C00001602068816821F001018160202060673E
:1025D000A067002084F870000320EBE70120E6E705
:1025E000FEE700000FB4084B10B504A902AA039837
:1025F00000F0F2F8044602A9002000F087FC204613
:1026000010BC5DF814FB00000D2F00080907090E2F
:10261000002804DB00F1E02080F80014704700F08F
:102620000F0000F1E02080F8141D704702E008C898
:10263000121F08C1002AFAD170477047002001E03C
:1026400001C1121F002AFBD1704700002DE9FF5F76
:1026500082B00021DDE90430020DDDF840B0034313
:1026600018D044F61050A2F2FF32424315141198CC
:1026700001281FD0A5EB0B00401C5FEA000A4FF0B9
:1026800000064E4FDFF83891B046504615D5CAF1D6
:10269000000413E0119801244AA3012801D16FEA34
:1026A0000B010298119AC0E90031C0E9024206B05C
:1026B00000F08EB8CBF10000DFE704460021404A6D
:1026C000491842EB0450CDE9001012E0E00707D0B2
:1026D00032463B4640464946FDF7D3FD8046894693
:1026E00032463B4610461946FDF7CBFD06460F46DF
:1026F0006410002CEAD1DDE90401DDE90023BAF120
:10270000000F06DAFDF7BDFD42464B46FDF7B9FD69
:1027100005E0FDF72BFE42464B46FDF727FE04463B
:102720000E460022284BFEF76DF803D84FF0FF301D
:10273000014607E00022254B20463146FDF79BFF6E
:10274000FEF748F8102409E0002C0ADB0A220023D7
:10275000FDF738FD039B30321A55641E50EA010222
:10276000F2D1641C039AC4F111031444119A012A92
:1027700003D0012208430DD10AE0084304D0002011
:102780004FF0110B119072E7A3EB0B056D1E0DE0DE
:102790005B4504DD4FF0000205F1010504E003DABA
:1027A0004FF00002A5F10105002AECD00298119922
:1027B000C0E90231C0E9004579E70000000014409B
:1027C0000000F03F300000000000F0430000E03F58
:1027D00030BCBDE8C09F00002DE9FF4F95B09B467F
:1027E0008946064600250FE2252877D10024274692
:1027F000F84A0121059400E0044316F8013F203B0C
:1028000001FA03F01042F7D130782A2811D06FF086
:102810002F033078A0F13002092A16D8059A44F027
:10282000020402EB820203EB42021044761C059084
:10283000EFE759F8042B0592002A03DA504244F4DA
:102840000054059044F00204761C30782E2816D1EE
:1028500016F8010F44F004042A280DD06FF02F025F
:102860003078A0F13003092B09D807EB870302EB7E
:102870004303C718761CF3E759F8047B761C3078BD
:102880006C280FD006DC4C2817D068280DD06A2899
:1028900014D104E0742810D07A280FD10DE044F44C
:1028A00000140AE044F4801401E044F44014727807
:1028B000824202D104F58014761C761C307866289A
:1028C0000BD013DC582877D009DC002875D04528B8
:1028D000F6D04628F4D047281AD19DE118E06328A5
:1028E00035D0642879D0652812D195E1702873D04D
:1028F00008DC6728F1D069286FD06E280DD06F28CA
:1029000006D1B5E073282CD0752875D0782874D0FE
:102910005A46179990476D1C75E1C4F3025002287E
:1029200009D003280DD0D9F8001004280DD00D606F
:1029300009F1040967E1D9F80010EA17C1E900526A
:10294000F6E7D9F800100D80F2E70D70F0E719F8FE
:10295000041B8DF8001000208DF80100EA460120CC
:1029600003E059F804AB4FF0FF3061074FF000016E
:1029700002D40DE008F101018846B9420FDA804522
:10298000F8DB1AF808100029F4D108E008F1010179
:1029900088468142FADB1AF808100029F6D105981A
:1029A0005B46A0EB080721463846179A00F097FAD5
:1029B000284400EB080507E04DE029E10DE01AF896
:1029C000010B5A4617999047B8F10108F7D25B46B8
:1029D00021463846179A13E142E00A220092C4F3D6
:1029E00002524FF0000A022A08D059F804CB032AF9
:1029F0004FEAEC710AD00DE029E02AE009F1070165
:102A000021F00702F2E802C1914609E00FFA8CFCBE
:102A10004FEAEC71042A03D14FFA8CFC4FEAEC71B7
:102A2000002907DA0A460021DCF1000C61EB020103
:102A30002D2202E0220504D52B228DF8042001224C
:102A400003E0E20701D02022F7E7904659E00A218F
:102A500002E010220DE010214FF0000A00910BE07F
:102A600010224FF0000A44F004040827009203E00B
:102A700008224FF0000A0092C4F30252022A05D045
:102A800059F804CB0021032A08D009E009F1070115
:102A900021F00702F2E802C1914605E01FFA8CFC22
:102AA000042A01D10CF0FF0C4FF00008220728D5B2
:102AB000702806D0009B83F0100353EA0A0305D068
:102AC0000EE040228DF80420012208E05CEA0102B9
:102AD00006D030228DF804208DF8050002229046A1
:102AE000009B83F0080353EA0A030AD15CEA01025F
:102AF00001D1620705D530228DF804204FF001087E
:102B00007F1E582804D034A003900EA802900DE038
:102B100036A0F9E753466046009AFDF753FB84461A
:102B20000398825C0298401E029002705CEA0100E9
:102B3000F0D1029806A9081A00F1200A600702D510
:102B400024F4803400E00127574502DDA7EB0A009A
:102B500000E0002000EB0A01009005984144401A73
:102B60000590E00306D45B462146179A059800F0CD
:102B7000B6F90544002706E001A85A46C05D17993A
:102B800090476D1C7F1C4745F6DBE0030CD55B4688
:102B90002146179A059800F0A2F9054404E0302078
:102BA0005A46179990476D1C0099481E00900029BD
:102BB000F5DC08E0029802995A460078491C029117
:102BC000179990476D1CBAF10001AAF1010AF1DCD6
:102BD00065E10000092801003031323334353637E1
:102BE0003839616263646566000000003031323359
:102BF00034353637383941424344454600000000F9
:102C000000F05BF90544761C307800287FF4ECADC9
:102C100019B0284600F04EB9620700D4062709F122
:102C2000070222F0070CFCE80223E14603F000480B
:102C30005FEA080C02D00FF2702C0DE05FEA045C32
:102C400002D50FF2682C07E05FEAC47C02D00FF2D5
:102C5000602C01E0AFF2700C4FF0FF3823F000431E
:102C6000CDF850C065280CD006DC452809D0462890
:102C70001DD047283DD13DE0662818D067287ED179
:102C800038E00021112F01DB112000E0781CCDE994
:102C9000000106A90EA8FFF7D9FCDDE90F010E9A85
:102CA00003910021009207F1010A04914DE04FF0D9
:102CB00000400097CDE9011006A90EA8FFF7C6FC59
:102CC000DDE90F0203920E9B11990022DDF80CA0A2
:102CD0000093049211B9791C00EB010AB7EB0A00CA
:102CE00004D4C0F1FF3007F1010A0490AAEB0700F9
:102CF000019044E0012F00DA01270021112F01DDAE
:102D0000112000E03846CDE9000106A90EA8FFF722
:102D10009DFCDDE90F010E9A0391002104910092C0
:102D2000BA4621070CD40399514500DA8A46BAF114
:102D3000010F05DD009AAAF10101515C302908D08C
:102D4000B84202DA10F1040F06DA0121CDE90110D0
:102D500015E0AAF10101E9E7002805DC0499014426
:102D60000491AAEB000102E0411C514500DD8A46B6
:102D70000499401A401C01904FF000400290200737
:102D800004D40198504501DBCDF8048000208DF873
:102D90004F0002980DF14F07B0F1004F25D02B20C6
:102DA0000E9002984FF0020800280CDA4042029080
:102DB0002D200E9007E00A210298FDF793FB303199
:102DC000029007F8011DB8F10001A8F10108F2DC3A
:102DD00002980028EFD1791E0E980870307800F024
:102DE000200040F0450007F8020D12A8C01B00F1BA
:102DF00007081498007800B1012000EB0A0101983F
:102E000001EBE07105984144401A401E0590E00333
:102E100006D45B462146179A059800F060F80544F1
:102E20001498007818B15A46179990476D1CE00322
:102E300024D55B462146179A059800F050F80544C2
:102E40001CE00498002807DBDDE90301884203DD6C
:102E50000098405C179901E0179930205A46904736
:102E6000049805F10105401C04900198401E019052
:102E700004D12E205A46179990476D1CBAF10001D3
:102E8000AAF1010ADDDC05E017F8010B5A46179993
:102E900090476D1CB8F10001A8F10108F4DC5B4615
:102EA0002146179A0598ABE62D0000002B00000084
:102EB0002000000030BCBDE8C08F2DE9F041044681
:102EC00000251E461746880404D405E03946202014
:102ED000B0476D1C641EF9D52846BDE8F0812DE988
:102EE000F041044600251E469046C80301D5302710
:102EF00000E02027880404D505E041463846B04765
:102F00006D1C641EF9D52846BDE8F0810A68531C83
:102F10000B601070704700002DED0A8B92B0FDF72A
:102F2000D5FFFFF719F9FEF7BDFFFEF7F1FFFFF739
:102F300011F85F48FEF7AEFF002006230246014667
:102F40000090FEF795FF9FED5BAB5C4D9FED5C8BBA
:102F5000FDF7A0FD04460B215BA0FFF7EBF8204630
:102F6000FDF784FA53EC1A2BFDF700FAFDF79EFAF1
:102F7000FDF789FA41EC100B56A153EC102B11A868
:102F8000FFF730FB002111A8FFF7D4F8002152A071
:102F9000FFF7D0F8002208212846FDF776FDC8206B
:102FA000FDF798FC00214DA0FFF7C4F803AA02A981
:102FB00001A8FDF765FCBDF90400FDF746FA53ECE6
:102FC000182BFDF75EF941EC190BBDF90800FDF770
:102FD0003CFA53EC182BFDF754F941EC1C0BBDF9EE
:102FE0000C00FDF732FA53EC182BFDF74AF941ECCF
:102FF0001B0B53EC192B37A108A8FFF7F3FA014676
:1030000008A8FFF797F8002133A0FFF793F853ECD7
:103010001C2B30A10BA8FFF7E5FA0446002131A0D4
:10302000FFF788F821460BA8FFF784F800212AA0B3
:10303000FFF780F853EC1B2B26A10EA8FFF7D2FA5E
:103040000446002125A0FFF775F821460EA8FFF7DA
:1030500071F8002120A0FFF76DF801220821284611
:10306000FDF713FDC820FDF735FCFDF713FDFDF757
:10307000FDF953EC1A2BFDF779F9FDF717FA044621
:1030800009211AA0FFF756F82046FDF7FCF941EC9C
:10309000100B10A153EC102B11A8FFF7A3FA00217D
:1030A00011A8FFF747F800210BA0FFF743F84FE7FF
:1030B000100000200000000000408F400004004885
:1030C000000000000000103F5374617274205469C6
:1030D0006D652000256600000A0D000041583A2069
:1030E0000000000041593A2000000000454E4420F5
:1030F00054696D652020000070B50C46054680219E
:103100006B20FEF7A5FE6420FDF7E4FB05F0070049
:1031100040EA84116B20FEF79BFEBDE870406420FE
:10312000FDF7D8BB01461C20FEF792BE01461B20CE
:10313000FEF78EBE01461A20FEF78ABE0000000090
:10314000000000000102030406070809A086010030
:10315000400D0300801A060000350C0040420F00AD
:1031600080841E0000093D0000127A000024F40053
:1031700000366E010048E801006CDC02000000002F
:1031800001020304A4310008000000201000000028
:103190002C260008B431000810000020180500009B
:1031A0003C260008100000000100000000000000A4
:0431B00000093D00D5
:040000050800018D61
:00000001FF
